:100000000C9480000C94A8000C94A8000C94A800F8
:100010000C94A8000C94A8000C94A8000C94A800C0
:100020000C94A8000C94A8000C94A8000C94A800B0
:100030000C94A8000C94A8000C94A8000C94A800A0
:100040000C9458070C94A8000C9426070C940007F5
:100050000C94A8000C94A8000C94A8000C94A80080
:100060000C94A2070C94A8004E414E494E49545995
:10007000494E46CDCCCC3D0AD7233C17B7D1387773
:10008000CC2B329595E6241FB14F0A000020410089
:1000900000C84200401C4620BCBE4CCA1B0E5AAED3
:1000A000C59D7400000000240027002A0000000005
:1000B00000250028002B0000000000230026002956
:1000C0000004040404040404040202020202020301
:1000D000030303030301020408102040800102040B
:1000E000081020010204081020000000080002018E
:1000F0000000030407000000000000000000C10829
:1001000011241FBECFEFD8E0DEBFCDBF23E0A6E8AD
:10011000B1E001C01D92AE3DB207E1F711E0A0E0F1
:10012000B1E0E6E2F2E202C005900D92A638B10716
:10013000D9F710E0C0E8D0E004C02197FE010E948A
:100140000B11CF37D107C9F70E9474090C94111114
:100150000C94000096E0899FD0011124A359BC4F54
:1001600090967C936E935F9791E091969C93919774
:10017000E091DA03F091DB039091D903992339F0F0
:10018000309751F0811108C080918903099430970C
:1001900019F05C968C91FACF0895CF92DF92EF928E
:1001A000FF920F931F9396E0899FF0011124E3596A
:1001B000FC4F11A2278D30A12130310551F178F08B
:1001C0002230310509F451C02330310509F452C001
:1001D0001F910F91FF90EF90DF90CF9008956623CD
:1001E000B9F361E070E00E94AA002FB7F894809103
:1001F000B4029091B502A091B602B091B7022FBFA0
:100200008093C5039093C603A093C703B093C8031C
:10021000DFCF9FB7F894C090B402D090B502E090C1
:10022000B602F090B7029FBF0091C5031091C603BC
:100230002091C7033091C803C01AD10AE20AF30A19
:100240000091D7031091D80330E020E00C151D0574
:100250002E053F0550F462E070E01F910F91FF9072
:10026000EF90DF90CF900C94AA006111B1CF63E0C2
:1002700070E0F3CF70E060E0F0CF08950895AF92A2
:10028000BF92CF92DF92EF92FF920F931F93CF9383
:10029000DF936C017B018B01040F151FEB015E01E5
:1002A000AE18BF08C017D10759F06991D601ED917A
:1002B000FC910190F081E02DC6010995892B79F719
:1002C000C501DF91CF911F910F91FF90EF90DF90CB
:1002D000CF90BF90AF900895FC01538D448D252F92
:1002E00030E0842F90E0821B930B541710F0CF96D0
:1002F000089501970895FC01918D828D981761F002
:10030000A28DAE0FBF2FB11D5D968C91928D9F5F18
:100310009F73928F90E008958FEF9FEF0895FC01F7
:10032000918D828D981731F0828DE80FF11D858DAA
:1003300090E008958FEF9FEF0895FC01918D228D3D
:10034000892F90E0805C9F4F821B91098F739927C2
:10035000089588EB92E00E949D0121E0892B09F429
:1003600020E0822F089580E090E0892B29F00E9400
:10037000A90181110C9400000895FC01A48DA80F1F
:10038000B92FB11DA35ABF4F2C91848D90E00196D7
:100390008F739927848FA689B7892C93A089B189F7
:1003A0008C91837080648C93938D848D981306C098
:1003B0000288F389E02D80818F7D80830895EF92FC
:1003C000FF920F931F93CF93DF93EC0181E0888F0F
:1003D0009B8D8C8D98131AC0E889F989808185FFDF
:1003E00015C09FB7F894EE89FF896083E889F98981
:1003F00080818370806480839FBF81E090E0DF9183
:10040000CF911F910F91FF90EF900895F62E0B8DD5
:1004100010E00F5F1F4F0F731127E02E8C8D8E1190
:100420000CC00FB607FCFACFE889F989808185FFF7
:10043000F5CFCE010E94BD01F1CFEB8DEC0FFD2F6A
:10044000F11DE35AFF4FF0829FB7F8940B8FEA89B2
:10045000FB8980818062CFCFCF93DF93EC01888DC1
:100460008823B9F0AA89BB89E889F9898C9185FD2F
:1004700003C0808186FD0DC00FB607FCF7CF8C91BD
:1004800085FFF2CF808185FFEDCFCE010E94BD01B7
:10049000E9CFDF91CF910895833081F028F4813046
:1004A00099F08230A9F008958730A9F08830C9F01A
:1004B0008430B1F4809180008F7D03C080918000F2
:1004C0008F7780938000089584B58F7784BD0895D9
:1004D00084B58F7DFBCF8091B0008F778093B00083
:1004E00008958091B0008F7DF9CFCF93DF93282FAF
:1004F00030E0F901E751FF4F8491F901EB52FF4FD2
:10050000D491F901EF53FF4FC491CC23A1F0811195
:100510000E944C02EC2FF0E0EE0FFF1FE954FF4F5A
:10052000A591B491EC91ED2381E090E009F480E095
:10053000DF91CF91089580E090E0FACF862F0C9460
:1005400075021F93CF93DF93282F30E0F901E75115
:10055000FF4F8491F901EB52FF4FD491F901EF5312
:10056000FF4FC491CC23A9F0162F81110E944C0299
:10057000EC2FF0E0EE0FFF1FE355FF4FA591B49174
:100580008FB7F894EC91111108C0D095DE23DC935D
:100590008FBFDF91CF911F910895DE2BF8CF862F6B
:1005A000642F0C94A102CF93DF9390E0FC01EB52F7
:1005B000FF4F24918F539F4FFC0184918823C9F0F2
:1005C00090E0880F991FFC01ED55FF4FA591B49164
:1005D000FC01E355FF4FC591D49161110DC09FB748
:1005E000F8948C91209582238C93888128232883EA
:1005F0009FBFDF91CF910895623051F49FB7F89477
:100600003C91822F809583238C93E8812E2BEFCF12
:100610008FB7F894EC912E2B2C938FBFEACF862FB7
:10062000642F0C94D3023FB7F89480913A029091D2
:100630003B02A0913C02B0913D0226B5A89B05C0AB
:100640002F3F19F00196A11DB11D3FBFBA2FA92F51
:10065000982F8827BC01CD01620F711D811D911D4E
:1006600042E0660F771F881F991F4A95D1F70895BA
:100670008F929F92AF92BF92CF92DF92EF92FF92B2
:100680004B015C010E9413036B017C010E94130368
:100690006C197D098E099F09683E7340810591059B
:1006A000A8F321E0821A9108A108B10888EEC80ECB
:1006B00083E0D81EE11CF11C81149104A104B10453
:1006C00029F7FF90EF90DF90CF90BF90AF909F9071
:1006D0008F9008952091EF01260F3327331F213289
:1006E0003105ECF420911302FC0190E080E024300D
:1006F00069F082E00895A091EF012191AC0141538E
:100700005E4FA40FB52FB11D2C930196861798F359
:100710008091EF01680F6093EF0180E0089581E020
:1007200008951092130281E0809315021092140232
:1007300061E082E10E94A10261E083E10E94A102E6
:10074000E9EBF0E080818E7F808380818D7F8083E4
:1007500088E48093B80085E48093BC000895CF932B
:10076000DF9391E09093CE018823B9F0C091B80057
:10077000D091BA008091BC008A7B8093BC0060E07D
:1007800082E10E94A10260E083E10E94A1020E9436
:100790009103D093BA00C093B800DF91CF91089530
:1007A0000895E091450280914402E81730F4F0E0AA
:1007B000E755FE4F808190E008958FEF9FEF0895F9
:1007C00090914502809144022FEF3FEF981748F433
:1007D000E92FF0E0E755FE4F208130E09F5F9093D6
:1007E0004502C90108958091440290914502891BF8
:1007F000990B0895CF92DF92EF92FF920F931F9380
:10080000CF93DF937C01CB018A012091A8012223A1
:1008100089F0EB016B01C40ED51ECC15DD0569F026
:100820006991D701ED91FC910190F081E02DC70114
:100830000995F3CF642F0E946A03C801DF91CF911D
:100840001F910F91FF90EF90DF90CF900895CF937D
:10085000DF931F92CDB7DEB769832091A8012223D1
:10086000F9F020914202203258F021E030E0FC0102
:100870003383228390E080E00F90DF91CF91089541
:1008800080914302E82FF0E0E857FE4F9981908372
:100890008F5F809343028093420281E090E0ECCF2F
:1008A00061E0CE0101960E946A03F7CFCF92DF92FA
:1008B000EF92FF920F931F93CF93DF93FC01C481BC
:1008C00021E02093A801C093870110924302109267
:1008D00042028385682B85E593E00E942704D0912E
:1008E0004202D13208F092C00E9413036B017C01D6
:1008F00080911302811165C082E08093130281E030
:10090000809315028FEF8093120210923702D093DA
:100910003602A8E8B1E0E6E1F2E080E0D81385C055
:100920001092380280913802CC0FC82BC093380245
:1009300080911402813009F07CC0109214020E9450
:1009400013036B017C01809138028093BB0080917E
:10095000CA019091CB01A091CC01B091CD01892B1E
:100960008A2B8B2B99F00E9413030091CA011091DE
:10097000CB012091CC013091CD016C197D098E09FC
:100980009F090617170728073907E0F18091BC0077
:1009900083FDD9CF85EC8093BC000E9413036B01CB
:1009A0007C0180911302823009F445C080911202CB
:1009B0008F3F61F180911202803241F180911202E9
:1009C00025C08091CA019091CB01A091CC01B0913A
:1009D000CD01892B8A2B8B2B09F48ACF0E9413031C
:1009E0000091CA011091CB012091CC013091CD0131
:1009F0006C197D098E099F09061717072807390703
:100A000008F076CF8091C9010E94AF031092430293
:100A1000109242021092A801DF91CF911F910F9185
:100A2000FF90EF90DF90CF9008959D9191938F5F0D
:100A300075CF85EEB0CF8091CA019091CB01A09186
:100A4000CC01B091CD01892B8A2B8B2B09F4A9CF36
:100A50000E9413030091CA011091CB012091CC0197
:100A60003091CD016C197D098E099F090617170772
:100A70002807390708F095CFC5CF089590E080E0AA
:100A80000895FC0101900020E9F73197AF01481B60
:100A9000590BBC0181E693E00C943F018F929F9229
:100AA000AF92BF920F931F93CF93DF93CDB7DEB773
:100AB000A1970FB6F894DEBF0FBECDBF19A242308A
:100AC00008F44AE08E010F5D1F4F842E912CB12C4B
:100AD000A12CA50194010E94E910E62FB901CA01D9
:100AE000EA30F4F4E05DD801EE938D01232B242B42
:100AF000252B79F790E080E0109719F0CD010E9446
:100B00004105A1960FB6F894DEBF0FBECDBFDF91B1
:100B1000CF911F910F91BF90AF909F908F900895AC
:100B2000E95CE1CF0F931F93CF938C01C62F0E94F6
:100B300056046C2F6460C8010E9456046C2F6B7FB2
:100B4000C8010E94560483EC90E00197F1F7CF9121
:100B50001F910F9108950F931F93CF93DF938C01F3
:100B6000D62FC42F607F642B0E94920580E1D89F0E
:100B7000B00111246C2BC801DF91CF911F910F910F
:100B80000C94920541E00E94AB0581E090E008954D
:100B900041E0682F81E693E00E94AB0581E090E0A0
:100BA0000895CF93DF93CDB7DEB728970FB6F894AB
:100BB000DEBF0FBECDBF98E0E8E1F1E0DE011196A7
:100BC00001900D929A95E1F790916903961708F4B8
:100BD0006FEF262F30E0220F331F41E050E04C0F23
:100BE0005D1F240F351FF9016081680F606840E0C8
:100BF00081E693E028960FB6F894DEBF0FBECDBF16
:100C0000DF91CF910C94AB0540E061E081E693E089
:100C10000E94AB058BE39FE10197F1F7089585ED05
:100C20008093BC008091CA019091CB01A091CC012E
:100C3000B091CD010796A11DB11D23E0B695A795F2
:100C4000979587952A95D1F72091BC0024FD03C084
:100C50001092130208954091CA015091CB01609106
:100C6000CC017091CD01452B462B472B69F30097A2
:100C7000A105B10541F02AE22A95F1F700C00197DC
:100C8000A109B109E1CF8091C9010C94AF03CF92C2
:100C9000DF92EF92FF92CF93E091AA02F091AB0224
:100CA000EA5BFD4F108286E492E00E94E40C6B0147
:100CB0007C011092AB021092AA028091B0028111C5
:100CC0002EC081E08093B002C092AC02D092AD02FF
:100CD000E092AE02F092AF02C091B302CD3379F050
:100CE000C093860161E080E00E94D1058C2F0E94B4
:100CF000C8056CE271E080E090E00E9438030E9439
:100D0000040660E080E00E94D1051092B2021092C9
:100D1000B102CF91FF90EF90DF90CF900895809136
:100D200086018B32A9F4A70196016091AC02709103
:100D3000AD028091AE029091AF020E94D20F6093FB
:100D4000AC027093AD028093AE029093AF02C4CF19
:100D50008D3269F4A70196016091AC027091AD02E9
:100D60008091AE029091AF020E94D10FE8CF8A32FB
:100D700069F4A70196016091AC027091AD02809177
:100D8000AE029091AF020E94BF0ED9CF8F3209F010
:100D9000A3CF20E030E0A901C701B6010E94590E9F
:100DA000811121C00E94040660E080E00E94D1050C
:100DB0008AE591E00E94410560ED77E080E090E0F7
:100DC0000E9438031092AC021092AD021092AE0253
:100DD0001092AF021092B002CF91FF90EF90DF908F
:100DE000CF900C940406A70196016091AC0270911B
:100DF000AD028091AE029091AF020E943E109FCF53
:100E00001F920F920FB60F9211242F933F934F937F
:100E10005F936F937F938F939F93AF93BF93EF9362
:100E2000FF9388EB92E00E94BD01FF91EF91BF918B
:100E3000AF919F918F917F916F915F914F913F9172
:100E40002F910F900FBE0F901F9018951F920F9229
:100E50000FB60F9211242F938F939F93EF93FF93CD
:100E6000E091C802F091C9028081E091CE02F09138
:100E7000CF0282FD1BC090818091D1028F5F8F7362
:100E80002091D202821741F0E091D102F0E0E854C3
:100E9000FD4F958F8093D102FF91EF919F918F919C
:100EA0002F910F900FBE0F901F9018958081F4CF57
:100EB0001F920F920FB60F9211242F933F938F938F
:100EC0009F93AF93BF938091B4029091B502A0918C
:100ED000B602B091B7023091390223E0230F2D37CB
:100EE00058F50196A11DB11D209339028093B402DB
:100EF0009093B502A093B602B093B70280913A02E4
:100F000090913B02A0913C02B0913D020196A11D3F
:100F1000B11D80933A0290933B02A0933C02B093A0
:100F20003D02BF91AF919F918F913F912F910F9073
:100F30000FBE0F901F90189526E8230F0296A11D53
:100F4000B11DD2CF1F920F920FB60F9211242F9383
:100F50003F934F935F936F937F938F939F93AF9341
:100F6000BF93EF93FF938091B900887F803609F497
:100F70004AC0F0F5883209F4A7C018F5803109F4A9
:100F80009BC0B8F4882309F4F9C0883009F494C0F0
:100F9000FF91EF91BF91AF919F918F917F916F9151
:100FA0005F914F913F912F910F900FBE0F901F9027
:100FB0001895883109F488C0803251F78093120265
:100FC00014C0803409F49DC040F48033B9F38833F1
:100FD000F9F68093120285ECB0C0803509F485C023
:100FE000883509F496C0883499F60E940F06D0CF50
:100FF000883909F48CC038F5883729F050F48836E0
:1010000011F0803729F683E08093130210921102C9
:1010100057C0883809F47BC0803919F0803809F04E
:10102000B7CF80911102803208F071C0E0911102B7
:1010300081E08E0F809311028091BB00F0E0EF50B1
:10104000FE4F80833DC0803B39F0E0F4803A09F4E4
:1010500079C0883A09F09CCF84E080931302109203
:10106000F0011092EF01E0914002F09141020995E8
:101070008091EF0181110FC081E08093EF01109208
:10108000CF0109C0803C09F4A6CF883C09F4A3CF66
:10109000883B09F07DCFE091F00181E08E0F8093D5
:1010A000F001F0E0E153FE4F80818093BB0090910E
:1010B000F0018091EF0129C0809138028093BB003C
:1010C00085EC8093BC0064CF90913702809136020A
:1010D000981758F5E091370281E08E0F8093370220
:1010E000F0E0EA5EFD4F8081E9CFE091370281E0D8
:1010F0008E0F809337028091BB00F0E0EA5EFD4FD7
:10110000808390913702809136029817C8F285E863
:10111000D8CFE091370281E08E0F80933702809123
:10112000BB00F0E0EA5EFD4F8083809115028111E3
:101130005CCF81E08093140284EA8093BC0010921B
:10114000130226CF85EC8093BC001092130280918D
:101150001102803230F4E0911102F0E0EF50FE4FC6
:1011600010826091110270E0E0913E02F0913F0226
:1011700081EF91E00995109211020ACF10921202AC
:1011800034CF1092BB021092BA0288EE93E0A0E036
:10119000B0E08093BC029093BD02A093BE02B093D6
:1011A000BF0224E231E03093B9022093B80225EC6B
:1011B00030E03093C5022093C40224EC30E0309339
:1011C000C7022093C60220EC30E03093C90220937E
:1011D000C80221EC30E03093CB022093CA0222EC0B
:1011E00030E03093CD022093CC0226EC30E03093F7
:1011F000CF022093CE021092D1021092D20210920E
:10120000D3021092D4021092580310925703809385
:10121000590390935A03A0935B03B0935C0386E356
:1012200091E0909356038093550310926F031092B0
:101230007303109272031092740384E591E090930B
:101240006E0380936D03E9E8F3E010821482138249
:101250001582369683E0E53CF807B9F784E091E023
:101260009093D0038093CF0380E091E09093D203DA
:101270008093D10384E08093D3038093D40328E048
:1012800031E03093CE032093CD032AE030E0309359
:10129000D6032093D50324EF31E03093D803209375
:1012A000D7031092DB031092DA031092C903109255
:1012B000CA031092CB031092CC031092D903109260
:1012C00064031092630328E431E0309362032093B7
:1012D000610397E29093650394E190936A0380938E
:1012E0006B0310926C030895789484B5826084BD7A
:1012F00084B5816084BD85B5826085BD85B581601A
:1013000085BD80916E00816080936E001092810097
:101310008091810082608093810080918100816052
:101320008093810080918000816080938000809113
:10133000B10084608093B1008091B000816080939F
:10134000B00080917A00846080937A0080917A0066
:10135000826080937A0080917A00816080937A0025
:1013600080917A00806880937A001092C100E091A9
:10137000C802F091C90282E08083E091C402F0913A
:10138000C5021082E091C602F091C7028FEC808303
:101390001092D002E091CC02F091CD0286E08083E1
:1013A000E091CA02F091CB02808180618083E0915C
:1013B000CA02F091CB02808188608083E091CA02EA
:1013C000F091CB02808180688083E091CA02F09125
:1013D000CB0280818F7D808310924502109244025F
:1013E00010924302109242020E9491038DE391E019
:1013F00090934102809340028EE391E090933F02EC
:1014000080933E021092660380916B03823018F045
:1014100098E0909366038093690362E370E080E054
:1014200090E00E94380360916C0381E693E00E9493
:10143000560468EE73E080E090E00E94380360E3B9
:1014400081E693E00E949205CBE4D6E4CE010197B9
:10145000F1F760E381E693E00E9492052197F1F7AE
:1014600060E381E693E00E94920583E592E00197B4
:10147000F1F760E281E693E00E94920560916603D5
:10148000606240E081E693E00E94AB0584E08093D7
:10149000670340E06CE081E693E00E94AB050E94A8
:1014A000040682E08093680340E066E081E693E012
:1014B0000E94AB0540E062E081E693E00E94AB054C
:1014C0008BE39FE10197F1F788E080936C0360E084
:1014D00081E693E00E94560460E084E00E94D1051A
:1014E00087E691E00E94410561E083E00E94D1051A
:1014F0008FE691E00E94410568EE73E080E090E0A5
:101500000E9438030E940406812C912C540183947C
:1015100040E0642E40E0742E51E05093D9038FB721
:10152000F8944091B4025091B5026091B602709166
:10153000B7028FBF8091C9039091CA03A091CB03DA
:10154000B091CC03481B590B6A0B7B0B8091D503E0
:101550009091D603B0E0A0E084179507A607B707DF
:1015600008F01CC1C0E08091D303C81760F4E0917B
:10157000CF03F091D003EC0FF11D62E080810E9457
:10158000D302CF5FF0CF512C8091D403581608F0CE
:101590005FC0052D10E0E091D103F091D203E00F80
:1015A000F11F61E080810E94D302E091D103F091AC
:1015B000D203E00FF11F60E080810E94A102D501FB
:1015C000C401052C04C0880F991FAA1FBB1F0A94D1
:1015D000D2F76C017C01E094F094412C8091D3030C
:1015E0004816F8F4C42DD0E0E091CF03F091D00379
:1015F000EC0FFD1F80810E9475022496CC0FDD1F29
:10160000C359DC4F892B41F4888199818C299D290C
:10161000998388834394E2CF888199818E219F2189
:10162000F7CFE091D103F091D203E00FF11F61E019
:1016300080810E94A1028091D1039091D203080F72
:10164000191F60E0F80180810E94D30253949CCF5F
:101650000DE613E0E8018F8D98A1892B31F41C8EE3
:101660008FEF9FEF9E8F8D8F19A2269693E0C93A38
:10167000D90789F7F12C8091D303F81608F053C0ED
:10168000E12CCF2CD12CCC0CDD1CF601EB58FC4FFF
:101690006F012091D403E21608F043C0F601608187
:1016A00071810E2C02C0769567950A94E2F7F29E3E
:1016B000900111242E0D311DEDE6F3E080E0458D03
:1016C000568D2417350709F45BC18F5F36968A3033
:1016D000B1F760FF24C0EDE6F3E090E080E0448DD8
:1016E000411118C0E091CD03F091CE03E20FF31F3A
:1016F000408156E0589FF001599FF00D1124E359A5
:10170000FC4F448F368F258F10A2178E61E00E9408
:10171000CD0005C0019636968A30910501F7E39415
:10172000B8CFF394A8CF80E0F80191A19111892F4F
:101730000A5F1F4FC017D107B9F79FB7F8944091C0
:10174000B4025091B5026091B6027091B7029FBF8A
:101750004093C9035093CA036093CB037093CC03A7
:101760008823E1F080918E038823C1F080918C035F
:1017700090918D03019791F4809189038093B30236
:10178000811111C06114710409F4C6CE0E94A9012F
:10179000882309F4C1CE0E940000BECE1092D90366
:1017A0001092B302EFCF90ED980F9A30F0F42091A1
:1017B000AA023091AB02233631057CF4A9014F5FB8
:1017C0005F4F5093AB024093AA022A5B3D4FF90151
:1017D00080834A5B5D4FFA0110820E94C805F1E0E8
:1017E000F093B202F093B102CDCF982F9D7F9D323E
:1017F00021F096ED980F923068F49091B2029923FF
:1018000009F4DFC09091B102992309F4BBC00E9492
:101810004706B8CF8D3309F0B8C08091B202882353
:1018200009F4B0CF8091B102882309F4ABCF809145
:10183000B002882309F4A6CF0E9447060E9404063E
:1018400060E080E00E94D105C090AC02D090AD0273
:10185000E090AE02F090AF02A7019601C701B60179
:101860000E94E410882329F089E791E00E94410555
:1018700089CF16012701E89457F82FEF3FEF4FE784
:101880005FE7C201B1010E94E41081110DC02FEF8A
:101890003FEF4FE75FE7C201B1010E94590E1816F2
:1018A0001CF48DE791E0E2CF2FEF3FEF4FE75FE4CD
:1018B000C701B6010E94DF1018161CF481E891E000
:1018C000D5CF2FEF3FEF4FE75FECC701B6010E9486
:1018D000590E87FDF3CF20E030E0A901C701B60122
:1018E0000E94590E87FF07C08DE20E94C805F7FAD3
:1018F000F094F7F8F09426E137EB41E558E3C7019F
:10190000B6010E94D20F6B017C010E94B0101B0136
:101910002C010E945E0E9B01AC01C701B6010E9422
:10192000D10F6B017C014AE0C201B1010E944E055A
:101930008EE20E94C805C5E0C15009F423CF20E023
:1019400030E040E251E4C701B6010E94BF0E1B0126
:101950002C010E94B0106B01F12CE12C4AE0C70170
:10196000B6010E944E05C701B6010E945E0E9B01A2
:10197000AC01C201B1010E94D10F6B017C01DCCF2F
:101980006170C5CE8D3309F44DCF833409F0FACEA2
:101990000E94040660E080E00E94D1051092AC0233
:1019A0001092AD021092AE021092AF021092AB02F2
:1019B0001092AA021092B2021092B1021092B002DA
:1019C000E1CE8D3311F7DECE662777270C94E80C35
:1019D000B0E0A0E0EEEEFCE00C94910F5C017B0126
:1019E0006115710519F0DB018D939C9385010F5FE3
:1019F0001F4FF501D0818D2F90E00E94380E6C01B1
:101A0000892BB9F5DD32B9F50F5F1F4FD50111965E
:101A1000DC91C1E05801F1E0AF1AB10843E050E0B9
:101A200060E770E0C5010E94410E892B69F56801ED
:101A300082E0C80ED11C45E050E06BE670E0C601C4
:101A40000E94410E892B21F4680197E0C90ED11C38
:101A5000E114F10419F0D701CD92DC9260E070E05E
:101A600080E89FEFC111FFC060E070E080E89FE771
:101A7000FAC05801BBCFDB3229F485010E5F1F4F3E
:101A8000F501D181C0E0C6CF43E050E068E670E0E8
:101A9000C5010E94410E892BE9F0F80110E000E039
:101AA00020E030E0A9015F01B0ED8B2E8D0E89E0C2
:101AB0008815C8F19C2E689491F88C2F8870C2FF0D
:101AC00016C0811102C00F5F1F4F3196D501DC9106
:101AD000C92DE9CFE114F10429F00E5F1F4FF70182
:101AE0001183008360E070E080EC9FE7BCC0882336
:101AF00011F001501109A5E0B0E00E94800F9B0198
:101B0000AC01220F331F441F551F280D311D411DED
:101B1000511D283999E93907490799E15907A8F270
:101B2000C6609C2ED2CFAEEF8A1206C0C3FD3CC069
:101B30009C2E689493F8C9CFDF7DD534A9F58081B8
:101B40008D3239F4C061DF011296818162E070E06C
:101B500006C0DF018B32C1F3119661E070E0805363
:101B60005D01A61AB70A8A30F8F4E0E8CE16ECE078
:101B7000DE065CF4B601660F771F660F771FC60E90
:101B8000D71ECC0CDD1CC80ED11C5D01FFEFAF1AB7
:101B9000BF0A8C9180538A30A8F1C4FF03C0D1944E
:101BA000C194D1080C0D1D1DC1FF09C0E114F10441
:101BB00031F081E0A81AB108D701AD92BC92CA01F8
:101BC000B9010E945E0EC370C33009F490584B01F6
:101BD0005C0120E030E0A9010E94590E882309F43D
:101BE00040C0CFE9D0E017FF05C01195019511095C
:101BF000C7E8D0E06E01B8E1CB1AD10880E2E82E48
:101C0000F12C0FC0D501B1CFFE0125913591459141
:101C100054910E191F09C501B4010E94BF0E4B015A
:101C20005C01D501C4010E151F0574F72497F594C6
:101C3000E794CC16DD06A9F78A2F880F8B2F881F13
:101C40008F3F49F020E030E0A901C501B4010E94B6
:101C5000590E811106C082E290E09093DD038093DB
:101C6000DC03C501B401CDB7DEB7ECE00C94AD0FD9
:101C700091110C942C0F803219F089508550C8F7BF
:101C80000895FB01DC014150504088F08D91813472
:101C90001CF08B350CF4805E659161341CF06B3563
:101CA0000CF4605E861B611171F3990B0895881B1B
:101CB000FCCF0E949B0E08F481E00895E89409C0CF
:101CC00097FB3EF490958095709561957F4F8F4F6F
:101CD0009F4F9923A9F0F92F96E9BB279395F69585
:101CE000879577956795B795F111F8CFFAF4BB0F03
:101CF00011F460FF1BC06F5F7F4F8F4F9F4F16C067
:101D0000882311F096E911C0772321F09EE8872FF0
:101D1000762F05C0662371F096E8862F70E060E0AC
:101D20002AF09A95660F771F881FDAF7880F969525
:101D3000879597F90895990F0008550FAA0BE0E8C9
:101D4000FEEF16161706E807F907C0F0121613067D
:101D5000E407F50798F0621B730B840B950B39F4BD
:101D60000A2661F0232B242B252B21F408950A2623
:101D700009F4A140A6958FEF811D811D08950E9451
:101D8000D20E0C94460F0E94380F38F00E943F0F7D
:101D900020F0952311F00C942F0F0C94350F112483
:101DA0000C947A0F0E94570F70F3959FC1F3950F13
:101DB00050E0551F629FF001729FBB27F00DB11DCF
:101DC000639FAA27F00DB11DAA1F649F6627B00D5F
:101DD000A11D661F829F2227B00DA11D621F739F48
:101DE000B00DA11D621F839FA00D611D221F749F56
:101DF0003327A00D611D231F849F600D211D822F9D
:101E0000762F6A2F11249F5750409AF0F1F08823C3
:101E10004AF0EE0FFF1FBB1F661F771F881F9150F0
:101E20005040A9F79E3F510580F00C942F0F0C9461
:101E30007A0F5F3FE4F3983ED4F3869577956795E4
:101E4000B795F795E7959F5FC1F7FE2B880F911D1A
:101E50009695879597F9089599278827089597F972
:101E60009F6780E870E060E008959FEF80EC089540
:101E700000240A9416161706180609060895002469
:101E80000A9412161306140605060895092E0394E3
:101E9000000C11F4882352F0BB0F40F4BF2B11F457
:101EA00060FF04C06F5F7F4F8F4F9F4F089557FDB6
:101EB0009058440F551F59F05F3F71F04795880FB8
:101EC00097FB991F61F09F3F79F08795089512164F
:101ED00013061406551FF2CF4695F1DF08C01616FB
:101EE00017061806991FF1CF8695710561050894AC
:101EF0000895E894BB2766277727CB0197F90895C3
:101F00000E94C20FA59F900DB49F900DA49F800DBD
:101F1000911D112408952F923F924F925F926F92DC
:101F20007F928F929F92AF92BF92CF92DF92EF9269
:101F3000FF920F931F93CF93DF93CDB7DEB7CA1BEA
:101F4000DB0B0FB6F894DEBF0FBECDBF09942A8815
:101F5000398848885F846E847D848C849B84AA84BD
:101F6000B984C884DF80EE80FD800C811B81AA814A
:101F7000B981CE0FD11D0FB6F894DEBF0FBECDBF15
:101F8000ED010895A29FB001B39FC001A39F700D02
:101F9000811D1124911DB29F700D811D1124911D71
:101FA00008955058BB27AA270E94E90F0C94460FAA
:101FB0000E94380F38F00E943F0F20F039F49F3F05
:101FC00019F426F40C94350F0EF4E095E7FB0C940D
:101FD0002F0FE92F0E94570F58F3BA1762077307A4
:101FE0008407950720F079F4A6F50C94790F0EF488
:101FF000E0950B2EBA2FA02D0B01B90190010C0119
:10200000CA01A0011124FF27591B99F0593F50F430
:10201000503E68F11A16F040A22F232F342F442788
:10202000585FF3CF469537952795A795F040539580
:10203000C9F77EF41F16BA0B620B730B840BBAF050
:102040009150A1F0FF0FBB1F661F771F881FC2F7BB
:102050000EC0BA0F621F731F841F48F487957795CF
:102060006795B795F7959E3F08F0B0CF9395880F89
:1020700008F09927EE0F9795879508950E945210C2
:102080000C94460F0E943F0F58F00E94380F40F00A
:1020900029F45F3F29F00C942F0F51110C947A0F03
:1020A0000C94350F0E94570F68F39923B1F3552311
:1020B00091F3951B550BBB27AA276217730784075B
:1020C00038F09F5F5F4F220F331F441FAA1FA9F3F1
:1020D00035D00E2E3AF0E0E832D091505040E695DF
:1020E000001CCAF72BD0FE2F29D0660F771F881F40
:1020F000BB1F261737074807AB07B0E809F0BB0B33
:10210000802DBF01FF2793585F4F3AF09E3F510546
:1021100078F00C942F0F0C947A0F5F3FE4F3983E05
:10212000D4F3869577956795B795F7959F5FC9F72F
:10213000880F911D9695879597F90895E1E0660FB0
:10214000771F881FBB1F621773078407BA0720F029
:10215000621B730B840BBA0BEE1F88F7E095089592
:102160000E945F0F88F09F5798F0B92F9927B751B9
:10217000B0F0E1F0660F771F881F991F1AF0BA952B
:10218000C9F714C0B13091F00E94790FB1E0089501
:102190000C94790F672F782F8827B85F39F0B93FF3
:1021A000CCF3869577956795B395D9F73EF49095DE
:1021B0008095709561957F4F8F4F9F4F08950E9436
:1021C0009B0E08F48FEF08950E949B0E880B990BCD
:1021D0000895A1E21A2EAA1BBB1BFD010DC0AA1F68
:1021E000BB1FEE1FFF1FA217B307E407F50720F080
:1021F000A21BB30BE40BF50B661F771F881F991FFB
:102200001A9469F760957095809590959B01AC0143
:10221000BD01CF010895EE0FFF1F0590F491E02D51
:062220000994F894FFCFC1
:1022260005040302090807063738392F3435362ADC
:102236003132332D43303D2B000040001400540052
:1022460000000000DF013F016C012C029D017B01B3
:102256008F01000000002704FA033E05D003F303B4
:10226600E003D10300000000C2053F013E053D0525
:10227600000000000F03CF029E024572726F723A91
:10228600204469762F300057656C636F6D65005486
:102296006F2043756C487562006E616E00696E66EC
:0622A600006F76660000E7
:00000001FF
