:020000040000FA
:100000000C94DF000C9407010C9407010C94070179
:100010000C9407010C9407010C9407010C94070140
:100020000C9407010C9407010C9407010C94070130
:100030000C9407010C9407010C9407010C94070120
:100040000C942C070C9407010C94FA060C94D4061B
:100050000C9407010C9407010C9407010C94070100
:100060000C9476070C94070100407A10F35A00A014
:10007000724E18090010A5D4E80000E87648170071
:1000800000E40B54020000CA9A3B000000E1F505B1
:10009000000080969800000040420F000000A086FB
:1000A00001000000102700000000E803000000002D
:1000B0006400000000000A000000000001000000D1
:1000C00000002C76D888DC674F0823DFC1DFAE59EB
:1000D000E1B1B796E5E3E453C63AE651997696E87E
:1000E000E6C28426EB898C9B62ED407C6FFCEFBC02
:1000F0009C9F40F2BAA56FA5F490055A2AF75C932D
:100100006B6CF9676DC11BFCE0E40D47FEF520E662
:10011000B500D0ED902E0300943577050080841E45
:10012000080000204E0A000000C80C333333330FA0
:10013000986E12831141EF8D2114893BE65516CF3D
:10014000FEE6DB18D1844B381BF77C1D901DA4BB49
:10015000E424203284725E228100C9F124ECA1E5FE
:100160003D2700000000240027002A0000000000B6
:10017000250028002B000000000023002600290095
:10018000040404040404040402020202020203033D
:100190000303030301020408102040800102040845
:1001A00010200102040810200000000800020100D5
:1001B000000304070000000000000000950811245F
:1001C0001FBECFEFD8E0DEBFCDBF23E0A2E7B1E096
:1001D00001C01D92AC3CB207E1F711E0A0E0B1E034
:1001E000E8EEF5E202C005900D92A237B107D9F70B
:1001F00010E0CFEDD0E004C02197FE010E94FA107C
:10020000CE3DD107C9F70E9448090C94F2120C9414
:10021000000096E0899FD0011124A75ABC4F909608
:100220007C936E935F9791E091969C939197E09168
:10023000C603F091C7039091C503992339F0309715
:1002400051F0811108C0809175030994309719F01D
:100250005C968C91FACF0895CF92DF92EF92FF9245
:100260000F931F9396E0899FF0011124E75AFC4FEA
:1002700011A2278D30A12130310551F178F02230C3
:10028000310509F451C02330310509F452C01F91E2
:100290000F91FF90EF90DF90CF9008956623B9F310
:1002A00061E070E00E9409012FB7F8948091A002EC
:1002B0009091A102A091A202B091A3022FBF8093BE
:1002C000B1039093B203A093B303B093B403DFCF11
:1002D0009FB7F894C090A002D090A102E090A20233
:1002E000F090A3029FBF0091B1031091B20320913F
:1002F000B3033091B403C01AD10AE20AF30A0091A1
:10030000C3031091C40330E020E00C151D052E0539
:100310003F0550F462E070E01F910F91FF90EF9065
:10032000DF90CF900C9409016111B1CF63E070E0D0
:10033000F3CF70E060E0F0CF08950895AF92BF92E0
:10034000CF92DF92EF92FF920F931F93CF93DF93A1
:100350006C017B018B01040F151FEB015E01AE18D0
:10036000BF08C017D10759F06991D601ED91FC91F2
:100370000190F081E02DC6010995892B79F7C5011F
:10038000DF91CF911F910F91FF90EF90DF90CF9071
:10039000BF90AF900895FC01538D448D252F30E020
:1003A000842F90E0821B930B541710F0CF96089582
:1003B00001970895FC01918D828D981761F0A28DAF
:1003C000AE0FBF2FB11D5D968C91928D9F5F9F7375
:1003D000928F90E008958FEF9FEF0895FC01918D2B
:1003E000828D981731F0828DE80FF11D858D90E098
:1003F00008958FEF9FEF0895FC01918D228D892F35
:1004000090E0805C9F4F821B91098F73992708951C
:1004100084EA92E00E94FC0121E0892B09F420E0AB
:10042000822F089580E090E0892B29F00E94080235
:1004300081110C9400000895FC01A48DA80FB92F20
:10044000B11DA35ABF4F2C91848D90E001968F73FC
:100450009927848FA689B7892C93A089B1898C911B
:10046000837080648C93938D848D981306C002886A
:10047000F389E02D80818F7D80830895EF92FF9234
:100480000F931F93CF93DF93EC0181E0888F9B8DB7
:100490008C8D98131AC0E889F989808185FF15C071
:1004A0009FB7F894EE89FF896083E889F989808194
:1004B0008370806480839FBF81E090E0DF91CF9163
:1004C0001F910F91FF90EF900895F62E0B8D10E085
:1004D0000F5F1F4F0F731127E02E8C8D8E110CC0F4
:1004E0000FB607FCFACFE889F989808185FFF5CF3F
:1004F000CE010E941C02F1CFEB8DEC0FFD2FF11D00
:10050000E35AFF4FF0829FB7F8940B8FEA89FB897B
:1005100080818062CFCFCF93DF93EC01888D8823D9
:10052000B9F0AA89BB89E889F9898C9185FD03C056
:10053000808186FD0DC00FB607FCF7CF8C9185FF3B
:10054000F2CF808185FFEDCFCE010E941C02E9CF62
:10055000DF91CF910895833081F028F4813099F0B4
:100560008230A9F008958730A9F08830C9F084302E
:10057000B1F4809180008F7D03C0809180008F77DF
:1005800080938000089584B58F7784BD089584B5E5
:100590008F7DFBCF8091B0008F778093B00008955E
:1005A0008091B0008F7DF9CFCF93DF93282F30E07B
:1005B000F901E855FE4F8491F901EC56FE4FD491B4
:1005C000F901E058FE4FC491CC23A1F081110E94A3
:1005D000AB02EC2FF0E0EE0FFF1FEA58FE4FA591A3
:1005E000B491EC91ED2381E090E009F480E0DF919B
:1005F000CF91089580E090E0FACF862F0C94D4023A
:100600001F93CF93DF93282F30E0F901E855FE4F79
:100610008491F901EC56FE4FD491F901E058FE4F58
:10062000C491CC23A9F0162F81110E94AB02EC2FAC
:10063000F0E0EE0FFF1FE459FE4FA591B4918FB784
:10064000F894EC91111108C0D095DE23DC938FBF94
:10065000DF91CF911F910895DE2BF8CF862F642F65
:100660000C940003CF93DF9390E0FC01EC56FE4F17
:10067000249180589E4FFC0184918823C9F090E01A
:10068000880F991FFC01EE59FE4FA591B491FC0112
:10069000E459FE4FC591D49161110DC09FB7F894F4
:1006A0008C91209582238C938881282328839FBF57
:1006B000DF91CF910895623051F49FB7F8943C9147
:1006C000822F809583238C93E8812E2BEFCF8FB7D9
:1006D000F894EC912E2B2C938FBFEACF862F642FAA
:1006E0000C9432033FB7F894809126029091270230
:1006F000A0912802B091290226B5A89B05C02F3FE2
:1007000019F00196A11DB11D3FBFBA2FA92F982F37
:100710008827BC01CD01620F711D811D911D42E032
:10072000660F771F881F991F4A95D1F708958F92FA
:100730009F92AF92BF92CF92DF92EF92FF924B01C6
:100740005C010E9472036B017C010E9472036C19B0
:100750007D098E099F09683E734081059105A8F3C4
:1007600021E0821A9108A108B10888EEC80E83E042
:10077000D81EE11CF11C81149104A104B10429F7D5
:10078000FF90EF90DF90CF90BF90AF909F908F90B1
:1007900008952091DB01260F3327331F21323105C5
:1007A000ECF42091FF01FC0190E080E0243069F03E
:1007B00082E00895A091DB012191AC0145545E4F88
:1007C000A40FB52FB11D2C930196861798F3809135
:1007D000DB01680F6093DB0180E0089581E00895FC
:1007E0001092FF0181E0809301021092000261E00B
:1007F00082E10E94000361E083E10E940003E9EBD3
:10080000F0E080818E7F808380818D7F808388E48B
:100810008093B80085E48093BC000895CF93DF9364
:1008200091E09093BA018823B9F0C091B800D091BB
:10083000BA008091BC008A7B8093BC0060E082E1BA
:100840000E94000360E083E10E9400030E94F00325
:10085000D093BA00C093B800DF91CF910895089566
:10086000E091310280913002E81730F4F0E0EB566D
:10087000FE4F808190E008958FEF9FEF0895909153
:100880003102809130022FEF3FEF981748F4E92FA3
:10089000F0E0EB56FE4F208130E09F5F90933102F5
:1008A000C90108958091300290913102891B990B02
:1008B0000895CF92DF92EF92FF920F931F93CF9301
:1008C000DF937C01CB018A0120919401222389F0DE
:1008D000EB016B01C40ED51ECC15DD0569F06991E5
:1008E000D701ED91FC910190F081E02DC7010995B0
:1008F000F3CF642F0E94C903C801DF91CF911F91EC
:100900000F91FF90EF90DF90CF900895CF93DF93FA
:100910001F92CDB7DEB76983209194012223F9F0AD
:1009200020912E02203258F021E030E0FC01338388
:10093000228390E080E00F90DF91CF910895809125
:100940002F02E82FF0E0EC58FE4F998190838F5FE3
:1009500080932F0280932E0281E090E0ECCF61E043
:10096000CE0101960E94C903F7CFCF92DF92EF929A
:10097000FF920F931F93CF93DF93FC01C48121E07B
:1009800020939401C093730110922F0210922E02B3
:100990008385682B81E493E00E948604D0912E0227
:1009A000D13208F092C00E9472036B017C018091E9
:1009B000FF01811165C082E08093FF0181E0809397
:1009C00001028FEF8093FE0110922302D093220246
:1009D000A4E7B1E0E2E0F2E080E0D81385C0109235
:1009E000240280912402CC0FC82BC0932402809152
:1009F0000002813009F07CC0109200020E94720354
:100A00006B017C01809124028093BB008091B60130
:100A10009091B701A091B801B091B901892B8A2BAF
:100A20008B2B99F00E9472030091B6011091B701CF
:100A30002091B8013091B9016C197D098E099F0987
:100A40000617170728073907E0F18091BC0083FDDE
:100A5000D9CF85EC8093BC000E9472036B017C01AE
:100A60008091FF01823009F445C08091FE018F3FE3
:100A700061F18091FE01803241F18091FE0125C03B
:100A80008091B6019091B701A091B801B091B901E0
:100A9000892B8A2B8B2B09F48ACF0E947203009139
:100AA000B6011091B7012091B8013091B9016C19CC
:100AB0007D098E099F09061717072807390708F0CF
:100AC00076CF8091B5010E940E0410922F021092F1
:100AD0002E0210929401DF91CF911F910F91FF9000
:100AE000EF90DF90CF9008959D9191938F5F75CF98
:100AF00085EEB0CF8091B6019091B701A091B80179
:100B0000B091B901892B8A2B8B2B09F4A9CF0E94B4
:100B100072030091B6011091B7012091B801309194
:100B2000B9016C197D098E099F0906171707280757
:100B3000390708F095CFC5CF089590E080E008957B
:100B400085ED8093BC008091B6019091B701A09192
:100B5000B801B091B9010796A11DB11D23E0B6956A
:100B6000A795979587952A95D1F72091BC0024FDEC
:100B700003C01092FF0108954091B6015091B70152
:100B80006091B8017091B901452B462B472B69F351
:100B90000097A105B10541F02AE22A95F1F700C0BE
:100BA0000197A109B109E1CF8091B5010C940E0420
:100BB0000F931F93CF938C01C62F0E94B5046C2F07
:100BC0006460C8010E94B5046C2F6B7FC8010E944D
:100BD000B50483EC90E00197F1F7CF911F910F914D
:100BE00008950F931F93CF93DF938C01D62FC42FBB
:100BF000607F642B0E94D80580E1D89FB00111244A
:100C00006C2BC801DF91CF911F910F910C94D805E7
:100C1000CF93DF93CDB7DEB728970FB6F894DEBF3A
:100C20000FBECDBF98E0EEE1F1E0DE01119601903C
:100C30000D929A95E1F790915503961708F46FEF8E
:100C4000262F30E0220F331F41E050E04C0F5D1F94
:100C5000240F351FF9016081680F606840E08DE462
:100C600093E028960FB6F894DEBF0FBECDBFDF919C
:100C7000CF910C94F10540E061E08DE493E00E9497
:100C8000F1058BE39FE10197F1F7089541E00E94A0
:100C9000F10581E090E00895CF93E0919602F09104
:100CA0009702EE5CFD4F108282E392E00E948C0C72
:100CB000BC01990F880B990B0E94EB0E9B01AC01B4
:100CC000109297021092960280919C0281112DC081
:100CD00081E080939C022093980230939902409384
:100CE0009A0250939B02C0919F02CD3391F061E034
:100CF00080E00E94080641E06C2F8DE493E00E94A2
:100D0000F105C093720164EF71E080E090E00E9411
:100D100097030E943B0660E080E00E940806109264
:100D20009D0210929E02CF910895809172018B32A4
:100D300099F4609198027091990280919A02909131
:100D40009B020E941C1060939802709399028093FA
:100D50009A0290939B02C7CF8D3259F4609198020A
:100D60007091990280919A0290919B020E941B10AF
:100D7000EACF8A3259F46091980270919902809179
:100D80009A0290919B020E94260FDDCF8F3209F0CC
:100D9000AACF609198027091990280919A029091E5
:100DA0009B020E948810CFCF1F920F920FB60F9216
:100DB00011242F933F934F935F936F937F938F9360
:100DC0009F93AF93BF93EF93FF9384EA92E00E94C7
:100DD0001C02FF91EF91BF91AF919F918F917F91F5
:100DE0006F915F914F913F912F910F900FBE0F9098
:100DF0001F9018951F920F920FB60F9211242F93E8
:100E00008F939F93EF93FF93E091B402F091B5021B
:100E10008081E091BA02F091BB0282FD1BC09081FB
:100E20008091BD028F5F8F732091BE02821741F0C7
:100E3000E091BD02F0E0EC55FD4F958F8093BD022F
:100E4000FF91EF919F918F912F910F900FBE0F9077
:100E50001F9018958081F4CF1F920F920FB60F92BA
:100E600011242F933F938F939F93AF93BF938091C0
:100E7000A0029091A102A091A202B091A302309190
:100E8000250223E0230F2D3758F50196A11DB11D32
:100E9000209325028093A0029093A102A093A20226
:100EA000B093A3028091260290912702A09128027C
:100EB000B09129020196A11DB11D80932602909345
:100EC0002702A0932802B0932902BF91AF919F916E
:100ED0008F913F912F910F900FBE0F901F901895FB
:100EE00026E8230F0296A11DB11DD2CF1F920F92AB
:100EF0000FB60F9211242F933F934F935F936F93ED
:100F00007F938F939F93AF93BF93EF93FF938091C2
:100F1000B900887F803609F44AC0F0F5883209F4B8
:100F2000A7C018F5803109F49BC0B8F4882309F4F0
:100F3000F9C0883009F494C0FF91EF91BF91AF914F
:100F40009F918F917F916F915F914F913F912F91E1
:100F50000F900FBE0F901F901895883109F488C02C
:100F6000803251F78093FE0114C0803409F49DC093
:100F700040F48033B9F38833F9F68093FE0185ECB1
:100F8000B0C0803509F485C0883509F496C088342E
:100F900099F60E94A005D0CF883909F48CC038F5A5
:100FA000883729F050F4883611F0803729F683E02D
:100FB0008093FF011092FD0157C0883809F47BC06F
:100FC000803919F0803809F0B7CF8091FD01803267
:100FD00008F071C0E091FD0181E08E0F8093FD016A
:100FE0008091BB00F0E0E352FE4F80833DC0803B28
:100FF00039F0E0F4803A09F479C0883A09F09CCFDE
:1010000084E08093FF011092DC011092DB01E091FB
:101010002C02F0912D0209958091DB0181110FC006
:1010200081E08093DB011092BB0109C0803C09F490
:10103000A6CF883C09F4A3CF883B09F07DCFE0918F
:10104000DC0181E08E0F8093DC01F0E0E554FE4F7F
:1010500080818093BB009091DC018091DB0129C0ED
:10106000809124028093BB0085EC8093BC0064CF08
:101070009091230280912202981758F5E091230263
:1010800081E08E0F80932302F0E0EE5FFD4F8081C0
:10109000E9CFE091230281E08E0F809323028091BB
:1010A000BB00F0E0EE5FFD4F8083909123028091C2
:1010B00022029817C8F285E8D8CFE091230281E098
:1010C0008E0F809323028091BB00F0E0EE5FFD4F16
:1010D00080838091010281115CCF81E080930002C6
:1010E00084EA8093BC001092FF0126CF85EC8093A8
:1010F000BC001092FF018091FD01803230F4E0913C
:10110000FD01F0E0E352FE4F10826091FD0170E0BE
:10111000E0912A02F0912B028DED91E00995109259
:10112000FD010ACF1092FE0134CF1092A702109257
:10113000A60288EE93E0A0E0B0E08093A80290932E
:10114000A902A093AA02B093AB022AE231E0309345
:10115000A5022093A40225EC30E03093B102209345
:10116000B00224EC30E03093B3022093B20220ECC2
:1011700030E03093B5022093B40221EC30E030939C
:10118000B7022093B60222EC30E03093B9022093EC
:10119000B80226EC30E03093BB022093BA021092E2
:1011A000BD021092BE021092BF021092C0021092B5
:1011B0004403109243038093450390934603A09306
:1011C0004703B09348038CE391E0909342038093EC
:1011D000410310925B0310925F0310925E03109222
:1011E00060038AE591E090935A0380935903E5E701
:1011F000F3E01082148213821582369683E0E13B7D
:10120000F807B9F784E091E09093BC038093BB03A7
:1012100080E091E09093BE038093BD0384E08093CF
:10122000BF038093C00328E031E03093BA032093DA
:10123000B9032AE030E03093C2032093C10324EFC6
:1012400031E03093C4032093C3031092C70310927C
:10125000C6031092B5031092B6031092B703109212
:10126000B8031092C5031092500310924F032EE45E
:1012700031E030934E0320934D0397E29093510356
:1012800094E1909356038093570310925803089566
:10129000CF93DF93CDB7DEB7A1970FB6F894DEBF3B
:1012A0000FBECDBF789484B5826084BD84B5816063
:1012B00084BD85B5826085BD85B5816085BD809121
:1012C0006E00816080936E00109281008091810099
:1012D0008260809381008091810081608093810091
:1012E000809180008160809380008091B100846053
:1012F0008093B1008091B00081608093B0008091B4
:101300007A00846080937A0080917A008260809372
:101310007A0080917A00816080937A0080917A00CF
:10132000806880937A001092C100E091B402F0913D
:10133000B50282E08083E091B002F091B1021082A8
:10134000E091B202F091B3028FEC80831092BC0264
:10135000E091B802F091B90286E08083E091B60294
:10136000F091B702808180618083E091B602F091B4
:10137000B702808188608083E091B602F091B70265
:10138000808180688083E091B602F091B70280810D
:101390008F7D8083109231021092300210922F02C2
:1013A00010922E020E94F0038CE991E090932D029E
:1013B00080932C028DE991E090932B0280932A0276
:1013C0001092520380915703823018F098E0909366
:1013D00052038093550362E370E080E090E00E9446
:1013E0009703609158038DE493E00E94B50468EE82
:1013F00073E080E090E00E94970360E38DE493E067
:101400000E94D8050BE416E4C8010197F1F760E3E8
:101410008DE493E00E94D805C8010197F1F760E3DD
:101420008DE493E00E94D80583E592E00197F1F7FF
:1014300060E28DE493E00E94D805609152036062FF
:1014400040E08DE493E00E94F10584E08093530333
:1014500040E06CE08DE493E00E94F1050E943B06C1
:1014600082E08093540340E066E08DE493E00E94C4
:10147000F10540E062E08DE493E00E94F1058BE32A
:101480009FE10197F1F70E943B0688E080935803A3
:1014900060E08DE493E00E94B50460E084E00E9487
:1014A000080647E050E060E671E08DE493E00E94BA
:1014B0009E0161E083E00E94080649E050E068E692
:1014C00071E08DE493E00E949E0164EF71E080E0A2
:1014D00090E00E9497030E943B06412C512C320160
:1014E000439440E0842E40E0942E51E05093C50395
:1014F0008FB7F8944091A0025091A1026091A2028E
:101500007091A3028FBF8091B5039091B603A09113
:10151000B703B091B803481B590B6A0B7B0B809142
:10152000C1039091C203B0E0A0E084179507A6071D
:10153000B70708F013C110E08091BF03181760F4DB
:10154000E091BB03F091BC03E10FF11D62E08081EB
:101550000E9432031F5FF0CF312C8091C0033816F8
:1015600008F061C0E32CF12CE091BD03F091BE03C3
:10157000EE0DFF1D61E080810E943203E091BD030A
:10158000F091BE03EE0DFF1D60E080810E9400031C
:10159000D301C201032C04C0880F991FAA1FBB1FCF
:1015A0000A94D2F75C016C01C094D094212C8091F4
:1015B000BF03281608F5022D10E0E091BB03F0915F
:1015C000BC03E00FF11F80810E94D4020C5F1F4F0B
:1015D000000F111FF801E75AFC4F892B41F480815D
:1015E00091818A299B29918380832394E0CF8081F4
:1015F00091818C219D21F7CFE091BD03F091BE0335
:10160000EE0DFF1D61E080810E9400038091BD030B
:101610009091BE03E80EF91E60E0F70180810E9400
:10162000320333949ACF99E5E92E93E0F92E6701BE
:10163000F601878D90A1892B31F4148E8FEF9FEFE7
:10164000968F858F11A296E0C90ED11CE5E9CE16C2
:10165000E3E0DE0669F7B12C8091BF03B81608F00D
:1016600051C0A12C0B2D10E0000F111F0F591C4F62
:101670002091C003A21608F043C0F8016081718177
:101680000A2C02C0769567950A94E2F7B29E900103
:1016900011242A0D311DE9E5F3E080E0458D568DDA
:1016A0002417350709F4F9C08F5F36968A30B1F7F1
:1016B00060FF24C0E9E5F3E090E080E0448D411153
:1016C00018C0E091B903F091BA03E20FF31F408113
:1016D00056E0589FF001599FF00D1124E75AFC4F36
:1016E000448F368F258F10A2178E61E00E942C0147
:1016F00005C0019636968A30910501F7A394B8CFBC
:10170000B394AACF80E0F70191A19111892FF6E05F
:10171000EF0EF11CCE14DF04B1F79FB7F89440919F
:10172000A0025091A1026091A2027091A3029FBFFA
:101730004093B5035093B6036093B7037093B80317
:10174000882361F080917A03882341F080917803A7
:101750009091790310917503019719F01092C503C8
:1017600010E010939F0280ED810F8A3040F080914D
:101770009E0281112DC01B3211F01D3269F580913E
:10178000960290919702FC01EE5CFD4F10839C0144
:101790002F5F3F4F309397022093960260E00E94A4
:1017A000080651E050939D0250939E0241E0612F44
:1017B0008DE493E00E94F1058114910409F495CE23
:1017C0000E940802882309F490CE0E9400008DCE6A
:1017D0001B3231F01D3221F01A3211F01F3259F450
:1017E00090919D02992309F45AC0882309F457C0A7
:1017F0000E944C06E1CF1D3309F054C090919D0228
:101800008923D1F280919C028823B1F20E944C0678
:101810000E943B06609198027091990280919A0211
:1018200090919B028E010F5F1F4F22E044E00E94C7
:101830006E0C6C01009749F1FC0101900020E9F762
:1018400031978F01081B190BB8016F5F7F4F90E034
:1018500080E00E9425127C010097E1F0FC011082DB
:10186000B6010E94EB1260E080E00E940806A80129
:10187000B7018DE493E00E949E01E114F10409F4A4
:101880009BCFC7010E949C1197CF10E000E0F12C84
:10189000E12CE9CF10E000E0E6CF617027CF1D33E7
:1018A00009F48ACF133409F087CF0E943B0660E029
:1018B00080E00E94080610929802109299021092FD
:1018C0009A0210929B021092970210929602109226
:1018D0009D0210929E0210929C026ECFEF920F9387
:1018E0001F93CF93DF93E80134E047FD34E1042EEA
:1018F000000C550B57FF03C0519541955109E32E3C
:10190000022F242FAE010E94B20CCE01DF91CF91A5
:101910001F910F91EF900895FC0188279927E89473
:1019200021912032E9F3293010F02E30C8F32B3208
:1019300041F02D3239F4689404C00E94AA0C820F41
:10194000911D219120532A30C0F31EF4909581956A
:101950009F4F08957AE0979F902D879F802D910D3E
:1019600011240895A9E0B0E0E8EBFCE00C94EA0F44
:101970006A01F22EB02E102FFBE3AF2EA01608F452
:101980001BE31F5F012F27E0AE014F5F5F4F0E94F7
:10199000110EBC018981982F9970913009F43FC0D4
:1019A0009BE2E1FC04C09E2D9170E0FC3AC05E2DEC
:1019B0005071E82FE87083FF46C084E0911101C0A8
:1019C00083E0EF2DE81B8F1508F0E0E0D6018E2FA5
:1019D00020E2552351F1992329F0D6019C93C601A9
:1019E00001966C0196012D5F3F4FE2FE24C08EE40C
:1019F000D6018C9391E411969C93119712968C9337
:101A0000D9018E2F90E281111BC0E20FF32FF11D3F
:101A100010828EEF9FEF2996ECE00C9406109DE269
:101A2000C6CF90E2C4CF2D9381508111FCCFCE0E52
:101A3000D11CE0E0D0CF8EE6D6018C9391E6DBCFCF
:101A40009D938150E0CF482F447082FF3DC084E0D9
:101A5000911101C083E08F1510F4EF2DE81BD60122
:101A60008E2F20E2552309F1992329F0D6019C936A
:101A7000C60101966C0196012D5F3F4FE2FE1BC02F
:101A800089E4D6018C938EE411968C93119786E4A9
:101A900012968C93D9018E2F90E2882309F4B5CF4A
:101AA0009D938150FACF2D9381508111FCCFCE0EA2
:101AB000D11CE0E0D9CF89E6D6018C938EE6119651
:101AC0008C93119786E6E4CF9B0177FF02C030E04C
:101AD00020E0A1E0B0E0911102C0B0E0A0E0F90187
:101AE0003196AE0FBF1F8B2C912CBB2009F461C027
:101AF0005401EFEFAE1ABE0AAA0DBB1DFA161B0663
:101B000019F014F04F2D4A1B511188C0E3FC59C045
:101B10007601A42FB0E2A1114FC0C40ED11C9923AD
:101B200009F45BC040E0D6011196F60190836D0187
:101B3000552309F448C0012F060F9A81582F507180
:101B400084FF03C0913309F4015010160CF047C014
:101B5000093008F008E0EEE2FE2E5B01A01AB108A1
:101B600085019194819491082F3F320729F4D60181
:101B7000FC92F60131966F016217730794F1021718
:101B800013077CF5DB01A21BB30BAA24A394B12C91
:101B9000AC0EBD1EAA0DBB1D11968C9121503109B2
:101BA000D601119628153905F4F0F60180836D01F0
:101BB000DBCFB12CA12CA0CFF701B1937F01A150B5
:101BC000AACF9111B0CFD601942F50E302C05D93FC
:101BD00091509111FCCFC40ED11C40E0ACCF01E07C
:101BE000BACF80E3DBCF6217730731F4963388F402
:101BF000953311F4552369F0F6018083FD01842F9C
:101C000090E2811108C0A40FB11D1C9290E080E009
:101C100002CF81E3F1CF91938150F3CF911183CF24
:101C20008ACF283008F027E03327DA01990F311DD9
:101C300087FD916000966105710539F432602E5F71
:101C40003D9330E32A95E1F708959F3F30F08038C7
:101C50007105610509F03C5F3C5F3D93913008F0F0
:101C60008068911DDF93CF931F930F93FF92EF92A4
:101C7000192F987F9695E92F96959695E90FFF274E
:101C8000EE53FF4F99273327EE24FF24A701E701E6
:101C900005900894079428F4360FE71EF81E491F94
:101CA000511D660F771F881F991F0694A1F7059095
:101CB000079428F4E70EF81E491F561FC11D770F21
:101CC000881F991F661F0694A1F70590079428F4B2
:101CD000F80E491F561FC71FD11D880F991F661F79
:101CE000771F0694A1F70590079420F4490F561F1B
:101CF000C71FD81F990F661F771F881F0694A9F763
:101D000084911095177041F0D695C79557954795D2
:101D1000F794E7941A95C1F7E8E6F0E06894159017
:101D2000159135916591959105907FE27395E11834
:101D3000F10A430B560BC90BD009C0F7E10CF11E99
:101D4000431F561FC91FD01D7EF4703311F48A95AE
:101D5000E6CFE894015030F0080F0AF4002702178C
:101D600008F4202F2395022F7A3328F079E37D930E
:101D70002A95E9F710C07D932A9589F606949795E0
:101D80006795379517951794E118F10A430B560B91
:101D9000C90BD00998F023957E9173957A3308F09A
:101DA00070E37C932013B8F77E9170617D9330F0DF
:101DB000839571E37D9370E32A95E1F71124EF9009
:101DC000FF900F911F91CF91DF91992787FD9095FB
:101DD0000895E89409C097FB3EF49095809570951E
:101DE00061957F4F8F4F9F4F9923A9F0F92F96E967
:101DF000BB279395F695879577956795B795F111DC
:101E0000F8CFFAF4BB0F11F460FF1BC06F5F7F4F78
:101E10008F4F9F4F16C0882311F096E911C077238A
:101E200021F09EE8872F762F05C0662371F096E893
:101E3000862F70E060E02AF09A95660F771F881F62
:101E4000DAF7880F9695879597F908950E94390FCC
:101E50000C94AA0F0E949C0F38F00E94A30F20F050
:101E6000952311F00C94930F0C94990F11240C945A
:101E7000DE0F0E94BB0F70F3959FC1F3950F50E0EA
:101E8000551F629FF001729FBB27F00DB11D639F2C
:101E9000AA27F00DB11DAA1F649F6627B00DA11DD2
:101EA000661F829F2227B00DA11D621F739FB00D78
:101EB000A11D621F839FA00D611D221F749F3327E8
:101EC000A00D611D231F849F600D211D822F762F81
:101ED0006A2F11249F5750409AF0F1F088234AF05E
:101EE000EE0FFF1FBB1F661F771F881F91505040CA
:101EF000A9F79E3F510580F00C94930F0C94DE0FD0
:101F00005F3FE4F3983ED4F3869577956795B79550
:101F1000F795E7959F5FC1F7FE2B880F911D96956A
:101F2000879597F9089597F99F6780E870E060E0DA
:101F300008959FEF80EC089500240A941616170662
:101F400018060906089500240A94121613061406AA
:101F500005060895092E0394000C11F4882352F00D
:101F6000BB0F40F4BF2B11F460FF04C06F5F7F4FC5
:101F70008F4F9F4F089557FD9058440F551F59F0AC
:101F80005F3F71F04795880F97FB991F61F09F3F66
:101F900079F087950895121613061406551FF2CF8F
:101FA0004695F1DF08C0161617061806991FF1CFDF
:101FB00086957105610508940895E894BB27662706
:101FC0007727CB0197F908952F923F924F925F9216
:101FD0006F927F928F929F92AF92BF92CF92DF9239
:101FE000EF92FF920F931F93CF93DF93CDB7DEB79E
:101FF000CA1BDB0B0FB6F894DEBF0FBECDBF099432
:102000002A88398848885F846E847D848C849B8488
:10201000AA84B984C884DF80EE80FD800C811B8196
:10202000AA81B981CE0FD11D0FB6F894DEBF0FBEC5
:10203000CDBFED0108955058BB27AA270E94331049
:102040000C94AA0F0E949C0F38F00E94A30F20F05E
:1020500039F49F3F19F426F40C94990F0EF4E0958F
:10206000E7FB0C94930FE92F0E94BB0F58F3BA17AC
:10207000620773078407950720F079F4A6F50C949E
:10208000DD0F0EF4E0950B2EBA2FA02D0B01B90138
:1020900090010C01CA01A0011124FF27591B99F0DE
:1020A000593F50F4503E68F11A16F040A22F232FEA
:1020B000342F4427585FF3CF469537952795A7953A
:1020C000F0405395C9F77EF41F16BA0B620B730BE1
:1020D000840BBAF09150A1F0FF0FBB1F661F771F52
:1020E000881FC2F70EC0BA0F621F731F841F48F407
:1020F000879577956795B795F7959E3F08F0B0CF90
:102100009395880F08F09927EE0F97958795089576
:102110000E949C100C94AA0F0E94A30F58F00E94DA
:102120009C0F40F029F45F3F29F00C94930F51115C
:102130000C94DE0F0C94990F0E94BB0F68F3992347
:10214000B1F3552391F3951B550BBB27AA276217B3
:102150007307840738F09F5F5F4F220F331F441FC0
:10216000AA1FA9F335D00E2E3AF0E0E832D09150F4
:102170005040E695001CCAF72BD0FE2F29D0660FE1
:10218000771F881FBB1F261737074807AB07B0E824
:1021900009F0BB0B802DBF01FF2793585F4F3AF02A
:1021A0009E3F510578F00C94930F0C94DE0F5F3F27
:1021B000E4F3983ED4F3869577956795B795F795B0
:1021C0009F5FC9F7880F911D9695879597F9089598
:1021D000E1E0660F771F881FBB1F62177307840734
:1021E000BA0720F0621B730B840BBA0BEE1F88F743
:1021F000E0950895EE0FFF1F0590F491E02D0994EE
:102200000F931F93CF93DF938230910510F482E0F8
:1022100090E0E091CA03F091CB0330E020E0B0E021
:10222000A0E0309799F42115310509F44AC0281B24
:10223000390B24303105D8F58A819B8161157105F0
:1022400089F1FB0193838283FE0111C0408151819A
:102250000281138148175907E0F04817590799F48C
:10226000109761F012960C93129713961C93329666
:10227000CF01DF91CF911F910F9108950093CA0371
:102280001093CB03F4CF2115310551F042175307BA
:1022900038F0A901DB019A01BD01DF01F801C1CFCE
:1022A000EF01F9CF9093CB038093CA03CDCFFE010A
:1022B000E20FF31F819391932250310939832883D0
:1022C000D7CF2091C8033091C903232B41F420912B
:1022D0001A0130911B013093C9032093C803209148
:1022E0001801309119012115310541F42DB73EB780
:1022F00040911C0150911D01241B350BE091C80336
:10230000F091C903E217F307A0F42E1B3F0B281727
:10231000390778F0AC014E5F5F4F2417350748F05E
:102320004E0F5F1F5093C9034093C803819391934D
:102330009FCFF0E0E0E09CCFCF93DF930097E9F0F0
:10234000FC01329713821282A091CA03B091CB0391
:10235000ED0130E020E01097A1F420813181820F5F
:10236000931F2091C8033091C9032817390709F03A
:1023700061C0F093C903E093C803DF91CF91089542
:10238000EA01CE17DF07E8F54A815B819E0141151E
:102390005105B1F7E901FB83EA8349915991C40FD3
:1023A000D51FEC17FD0761F4808191810296840F9F
:1023B000951FE90199838883828193819B838A8316
:1023C000F0E0E0E012968D919C9113970097B9F59B
:1023D0002D913C911197CD010296820F931F209170
:1023E000C8033091C9032817390739F6309751F5DA
:1023F0001092CB031092CA03B093C903A093C803F1
:10240000BCCFD383C28340815181840F951FC817ED
:10241000D90761F44E5F5F4F88819981480F591F3A
:10242000518340838A819B81938382832115310567
:1024300009F0B0CFF093CB03E093CA039ECFFD0128
:10244000DC01C0CF13821282D7CFB0E0A0E0EBE274
:10245000F2E10C94E60F8C01009751F4CB010E943D
:1024600000118C01C801CDB7DEB7E0E10C94021079
:10247000FC01E60FF71F9C0122503109E217F30718
:1024800008F49DC0D901CD91DC911197C617D707EB
:1024900098F0C530D10530F3CE0104978617970721
:1024A00008F3C61BD70B2297C193D1936D937C93EE
:1024B000CF010E949C11D6CF5B01AC1ABD0A4C0122
:1024C0008C0E9D1EA091CA03B091CB03512C412CC0
:1024D000F12CE12C109731F58091C8039091C9033C
:1024E0008815990509F05CC04616570608F058C0D3
:1024F0008091180190911901009741F48DB79EB712
:1025000040911C0150911D01841B950BE817F907A0
:1025100008F055C0F093C903E093C803F901718333
:102520006083A0CF8D919C91119712966C90129719
:1025300013967C901397A815B90559F56C0142E0E4
:10254000C40ED11CCA14DB0420F1AC014A195B098A
:10255000DA011296159780F062827382518340836C
:10256000D9016D937C93E114F10471F0D7011396B6
:10257000FC93EE93129776CF22968C0F9D1FF90154
:1025800091838083F301EFCFF093CB03E093CA03F1
:1025900069CF4816590608F42C017D01D3019ACF62
:1025A000CB010E9400117C01009749F0AE01B801F7
:1025B0000E94E212C8010E949C11870153CF10E0D3
:1025C00000E050CFFB01DC0102C001900D924150B0
:1025D0005040D8F70895FB01DC0101900D920020D6
:1025E000E1F70895F894FFCF0504030209080706F0
:1025F0003738392F3435362A3132332D43303D2B9D
:102600000000CC03800000004000140054000000D3
:1026100000003E029E01CB018B02FC01DA01EE01BB
:1026200000000000860459049D052F0452043F0455
:1026300030040000000046069E019D059C05000038
:1026400000006E032E03FD0257656C636F6D65001D
:0A265000546F2043756C487562005A
:107E0000112484B714BE81FFF0D085E080938100F7
:107E100082E08093C00088E18093C10086E0809377
:107E2000C20080E18093C4008EE0C9D0259A86E02C
:107E300020E33CEF91E0309385002093840096BBD3
:107E4000B09BFECF1D9AA8958150A9F7CC24DD24C4
:107E500088248394B5E0AB2EA1E19A2EF3E0BF2EE7
:107E6000A2D0813461F49FD0082FAFD0023811F036
:107E7000013811F484E001C083E08DD089C08234E0
:107E800011F484E103C0853419F485E0A6D080C0E4
:107E9000853579F488D0E82EFF2485D0082F10E0AE
:107EA000102F00270E291F29000F111F8ED06801E7
:107EB0006FC0863521F484E090D080E0DECF843638
:107EC00009F040C070D06FD0082F6DD080E0C81688
:107ED00080E7D80618F4F601B7BEE895C0E0D1E017
:107EE00062D089930C17E1F7F0E0CF16F0E7DF06D8
:107EF00018F0F601B7BEE89568D007B600FCFDCFD4
:107F0000A601A0E0B1E02C9130E011968C91119780
:107F100090E0982F8827822B932B1296FA010C0160
:107F200087BEE89511244E5F5F4FF1E0A038BF0790
:107F300051F7F601A7BEE89507B600FCFDCF97BE46
:107F4000E89526C08437B1F42ED02DD0F82E2BD052
:107F50003CD0F601EF2C8F010F5F1F4F84911BD097
:107F6000EA94F801C1F70894C11CD11CFA94CF0C13
:107F7000D11C0EC0853739F428D08EE10CD085E9AC
:107F80000AD08FE07ACF813511F488E018D01DD067
:107F900080E101D065CF982F8091C00085FFFCCF94
:107FA0009093C60008958091C00087FFFCCF809118
:107FB000C00084FD01C0A8958091C6000895E0E648
:107FC000F0E098E1908380830895EDDF803219F02E
:107FD00088E0F5DFFFCF84E1DECF1F93182FE3DFCA
:107FE0001150E9F7F2DF1F91089580E0E8DFEE27F6
:047FF000FF270994CA
:027FFE00040479
:00000001FF
